:100000000C945C000C946E000C946E000C946E00CA
:100010000C946E000C946E000C946E000C946E00A8
:100020000C946E000C946E000C946E000C946E0098
:100030000C946E000C946E000C946E000C946E0088
:100040000C945E010C946E000C946E000C946E0087
:100050000C946E000C946E000C946E000C946E0068
:100060000C946E000C946E00000000080002010069
:100070000003040700000000000000000000000072
:10008000250028002B0000000000240027002A0083
:10009000040404040404040402020202020203032E
:1000A0000303030301020408102040800102040836
:1000B000102001020408102011241FBECFEFD8E049
:1000C000DEBFCDBF21E0A0E0B1E001C01D92AF30A6
:1000D000B207E1F70E94A8010C9473020C9400008F
:1000E00090E0FC01EC55FF4F2491FC01E057FF4FDD
:1000F0008491882399F090E0880F991FFC01EA57BA
:10010000FF4FA591B491FC01E458FF4F8591949164
:100110008FB7F894EC91E22BEC938FBF089590E0A9
:10012000FC01E859FF4F3491FC01EC55FF4F24913D
:10013000FC01E057FF4FE491EE2309F43BC0332369
:1001400039F1333091F038F43130A9F0323001F523
:1001500084B58F7D12C0373091F03830A1F0343043
:10016000B9F4809180008F7D03C0809180008F77EB
:10017000809380000DC084B58F7784BD09C08091C5
:10018000B0008F7703C08091B0008F7D8093B00066
:10019000F0E0EE0FFF1FE458FF4FA591B4918FB729
:1001A000F894EC91611103C020952E2301C02E2BF1
:1001B0002C938FBF08951F93CF93DF93182FEB01DC
:1001C0000E947000209711F460E004C0CF3FD10579
:1001D00039F461E0812FDF91CF911F910C948F0052
:1001E000E12FF0E0E859FF4FE491E330F9F048F4F3
:1001F000E130B9F0E230A1F584B5806284BDC8BDBC
:1002000034C0E730E9F0E83019F1E43049F5809185
:100210008000806280938000D0938B00C0938A001E
:1002200024C084B5806884BDC7BD1FC08091800094
:10023000806880938000D0938900C093880015C0A7
:100240008091B00080688093B000C093B3000DC06F
:100250008091B00080628093B000C093B40005C06C
:10026000C038D1050CF0B5CFAFCFDF91CF911F9142
:1002700008953FB7F89480910B0190910C01A091E3
:100280000D01B0910E0126B5A89B05C02F3F19F0B6
:100290000196A11DB11D3FBFBA2FA92F982F882706
:1002A000820F911DA11DB11DBC01CD0142E0660F61
:1002B000771F881F991F4A95D1F708951F920F92B3
:1002C0000FB60F9211242F933F938F939F93AF9369
:1002D000BF938091070190910801A0910901B0910D
:1002E0000A013091060123E0230F2D3720F40196F7
:1002F000A11DB11D05C026E8230F0296A11DB11D49
:10030000209306018093070190930801A0930901AF
:10031000B0930A0180910B0190910C01A0910D0105
:10032000B0910E010196A11DB11D80930B01909318
:100330000C01A0930D01B0930E01BF91AF919F915D
:100340008F913F912F910F900FBE0F901F90189596
:10035000789484B5826084BD84B5816084BD85B5A0
:10036000826085BD85B5816085BD80916E008160AC
:1003700080936E0010928100809181008260809352
:100380008100809181008160809381008091800054
:100390008160809380008091B10084608093B1007F
:1003A0008091B00081608093B00080917A00846079
:1003B00080937A0080917A00826080937A008091A5
:1003C0007A00816080937A0080917A0080688093BF
:1003D0007A001092C10083E00E94700085E00E94C4
:1003E000700086E00E94700090E0E92E90E0F92E07
:1003F000609104017091050183E00E94DB0000918F
:10040000020110910301B80185E00E94DB00C09158
:100410000001D0910101BE0186E00E94DB008091C5
:10042000040190910501BC016F5F7F4F709305013E
:10043000609304019E012E5F3F4F30930101209392
:100440000001A8014D5F5F4F5093030140930201EB
:100450006F3F710539F034F08E5F9109909305017B
:10046000809304014F3F510539F034F00C5F1109BE
:1004700010930301009302012F3F310539F034F04E
:10048000CD5FD109D0930101C09300010E943901D1
:100490002B013C0188E2882E912CA12CB12C0E94CA
:1004A0003901DC01CB0184199509A609B709883EF9
:1004B0009340A105B10558F021E0821A9108A108E6
:1004C000B10888EE480E83E0581E611C711C81142F
:1004D0009104A104B10419F7E114F10409F488CFDF
:0A04E0000E94000085CFF894FFCFC2
:00000001FF
